:1000000055C000005BC0000059C0000057C0000090
:1000100055C0000053C0000051C000004FC0000098
:100020004DC000004BC0000049C0000047C00000A8
:1000300045C0000043C0000041C000003FC00000B8
:100040003DC000003BC0000039C0000037C00000C8
:1000500035C0000033C0000031C000002FC00000D8
:100060002DC000002BC0000029C0000027C00000E8
:1000700025C0000023C0000021C000001FC00000F8
:100080001DC000001BC0000019C0000077007A00EE
:100090007D0080008300860089008C008F00920024
:1000A000950098009B009E00A100A40011241FBE93
:1000B000CFEFD0E1DEBFCDBF4DD065C0A1CF1816C8
:1000C00019066CF420E030E0EFECF7E03197F1F73F
:1000D00000C000002F5F3F4F28173907A9F7089588
:1000E00080319105A0F5FC01EA5BFF4F43C08FE32F
:1000F0008BBB089586E08BBB08958BE58BBB089581
:100100008FE48BBB089586E68BBB08958DE68BBB91
:1001100008958DE78BBB089587E08BBB08958FE72B
:100120008BBB08958FE68BBB089587E78BBB089543
:100130008FE78BBB089589E38BBB08958FE38BBB5F
:10014000089589E78BBB089581E78BBB089589E704
:100150008BBB08958FEF8ABB00E010E0C02FD12F3A
:10016000CE01BEDF8AE090E0AADF2196C431D1053E
:10017000B9F7F4CFEE0FFF1F0024001C0BBE079051
:0A018000F691E02D0994F894FFCFEA
:00000001FF
