S0100000547261636B3242322E7372656379
S113000045C0000065C000007CC000004FC0000077
S11300104DC000004BC0000049C0000047C00000B4
S113002045C0000043C0000041C000003FC00000C4
S11300303DC000003BC0000039C0000037C00000D4
S113004035C0000033C0000031C000002FC00000E4
S11300502DC000002BC0000029C0000027C00000F4
S113006025C0000023C0000021C000001FC0000004
S11300701DC000001BC0000019C0000017C0000014
S113008015C0000013C0000011C0000011241FBEE1
S1130090CFEFD0E1DEBFCDBF21E0A0E0B1E001C0F1
S11300A01D92A130B207E1F745D057C0A9CF181669
S11300B019066CF420E030E0EFECF7E03197F1F74B
S11300C000C000002F5F3F4F28173907A9F7089594
S11300D01F920F920FB60F9211248F9380910001FB
S11300E0811105C081E08093000182BB04C0859525
S11300F08093000182BB8F910F900FBE0F901F90D1
S113010018951F920F920FB60F9211248F9380911E
S11301100001811105C081E08093000182BB04C00D
S113012085958093000182BB8F910F900FBE0F9035
S11301301F90189580EF81BB80E18093000182BB02
S1130140EAE6F0E080818B60808389B7836089BFB1
S1110150789482E390E0ABDFFCCFF894FFCF0D
S9030000FC
