S0100000547261636B3342312E7372656379
S113000045C0000060C000005EC000005CC000008D
S11300105AC0000058C0000056C0000054C0000080
S113002052C0000050C0000072C000004CC000006C
S11300304AC0000048C0000047C0000044C000009F
S113004042C0000040C000003EC000003CC00000B0
S11300503AC0000038C0000036C0000034C00000C0
S113006032C0000030C000002EC000002CC00000D0
S11300702AC0000028C0000026C0000024C00000E0
S113008022C0000020C000001EC0000011241FBEBA
S1130090CFEFD0E1DEBFCDBF11E0A0E0B1E0E2E3FD
S11300A0F2E000E00BBF02C007900D92A630B1074A
S11300B0D9F721E0A6E0B1E001C01D92AA30B20751
S11300C0E1F7B0D0B4C09CCF1F920F920FB60F923D
S11300D011248F939F9382E19AE79DBD8CBD8091FB
S11300E008019091090101968A3091052CF49093AE
S11300F009018093080104C01092090110920801BB
S11301009F918F910F900FBE0F901F9018951F9283
S11301100F920FB60F9211248F939F938091060133
S113012090910701019690930701809306018FE057
S113013084BD80910601909107010F9711F480E826
S113014082BB8091060190910701889729F415BA22
S113015010920701109206019F918F910F900FBE8C
S11301600F901F901895982F907F95BBAB9AEFE155
S1130170FEE43197F1F700C0000094E095BBF0E194
S11301808F9FC001112485BBAB9A8FE19EE4019738
S1130190F1F700C0000015BA08952FE78BE898E046
S11301A0215080409040E1F700C0000082E0DBDF96
S11301B088E2D9DF8CE0D7DF86E0D5DF80E8D3CFD3
S11301C00895982F907F95BB95B39C6095BBEFE104
S11301D0FEE43197F1F700C0000094E095BBF0E134
S11301E08F9FC001112485BB85B38C6085BB8FE1D3
S11301F09EE40197F1F700C0000015BA08950F932B
S11302001F93CF93DF938C0180E8ADDFC0E1D0E092
S1130210F8018181D6DF2197D9F7DF91CF911F9122
S11302200F910895BADF80E091E0E9DFFFCFF89401
S1050230FFCFFA
S109023254656B737400B7
S9030000FC
